{
	"fauset.sol": {
		"Faucet": {
			"abi": [
				{
					"inputs": [],
					"stateMutability": "nonpayable",
					"type": "constructor"
				},
				{
					"inputs": [],
					"name": "checkBalance",
					"outputs": [
						{
							"internalType": "uint256",
							"name": "",
							"type": "uint256"
						}
					],
					"stateMutability": "view",
					"type": "function"
				},
				{
					"inputs": [],
					"name": "claimAmount",
					"outputs": [
						{
							"internalType": "uint256",
							"name": "",
							"type": "uint256"
						}
					],
					"stateMutability": "view",
					"type": "function"
				},
				{
					"inputs": [],
					"name": "cooldown",
					"outputs": [
						{
							"internalType": "uint256",
							"name": "",
							"type": "uint256"
						}
					],
					"stateMutability": "view",
					"type": "function"
				},
				{
					"inputs": [],
					"name": "deposit",
					"outputs": [],
					"stateMutability": "payable",
					"type": "function"
				},
				{
					"inputs": [
						{
							"internalType": "address",
							"name": "",
							"type": "address"
						}
					],
					"name": "lastClaimed",
					"outputs": [
						{
							"internalType": "uint256",
							"name": "",
							"type": "uint256"
						}
					],
					"stateMutability": "view",
					"type": "function"
				},
				{
					"inputs": [],
					"name": "owner",
					"outputs": [
						{
							"internalType": "address",
							"name": "",
							"type": "address"
						}
					],
					"stateMutability": "view",
					"type": "function"
				},
				{
					"inputs": [],
					"name": "requestEth",
					"outputs": [],
					"stateMutability": "nonpayable",
					"type": "function"
				},
				{
					"inputs": [
						{
							"internalType": "uint256",
							"name": "_amt",
							"type": "uint256"
						}
					],
					"name": "withdraw",
					"outputs": [],
					"stateMutability": "nonpayable",
					"type": "function"
				}
			],
			"devdoc": {
				"kind": "dev",
				"methods": {},
				"version": 1
			},
			"evm": {
				"assembly": "    /* \"fauset.sol\":58:1587  contract Faucet {... */\n  mstore(0x40, 0x80)\n    /* \"fauset.sol\":240:249  0.1 ether */\n  0x016345785d8a0000\n    /* \"fauset.sol\":214:249  uint public claimAmount = 0.1 ether */\n  0x02\n  sstore\n    /* \"fauset.sol\":278:286  24 hours */\n  0x015180\n    /* \"fauset.sol\":255:286  uint public cooldown = 24 hours */\n  0x03\n  sstore\n    /* \"fauset.sol\":345:394  constructor() {... */\n  callvalue\n  dup1\n  iszero\n  tag_1\n  jumpi\n  0x00\n  dup1\n  revert\ntag_1:\n  pop\n    /* \"fauset.sol\":377:387  msg.sender */\n  caller\n    /* \"fauset.sol\":369:374  owner */\n  0x00\n  dup1\n    /* \"fauset.sol\":369:387  owner = msg.sender */\n  0x0100\n  exp\n  dup2\n  sload\n  dup2\n  0xffffffffffffffffffffffffffffffffffffffff\n  mul\n  not\n  and\n  swap1\n  dup4\n  0xffffffffffffffffffffffffffffffffffffffff\n  and\n  mul\n  or\n  swap1\n  sstore\n  pop\n    /* \"fauset.sol\":58:1587  contract Faucet {... */\n  dataSize(sub_0)\n  dup1\n  dataOffset(sub_0)\n  0x00\n  codecopy\n  0x00\n  return\nstop\n\nsub_0: assembly {\n        /* \"fauset.sol\":58:1587  contract Faucet {... */\n      mstore(0x40, 0x80)\n      jumpi(tag_1, lt(calldatasize, 0x04))\n      shr(0xe0, calldataload(0x00))\n      dup1\n      0x8da5cb5b\n      gt\n      tag_10\n      jumpi\n      dup1\n      0x8da5cb5b\n      eq\n      tag_6\n      jumpi\n      dup1\n      0xc71daccb\n      eq\n      tag_7\n      jumpi\n      dup1\n      0xd0e30db0\n      eq\n      tag_8\n      jumpi\n      dup1\n      0xf192d0a1\n      eq\n      tag_9\n      jumpi\n      jump(tag_1)\n    tag_10:\n      dup1\n      0x013eba92\n      eq\n      tag_2\n      jumpi\n      dup1\n      0x2e1a7d4d\n      eq\n      tag_3\n      jumpi\n      dup1\n      0x787a08a6\n      eq\n      tag_4\n      jumpi\n      dup1\n      0x830953ab\n      eq\n      tag_5\n      jumpi\n    tag_1:\n      0x00\n      dup1\n      revert\n        /* \"fauset.sol\":165:208  mapping(address => uint) public lastClaimed */\n    tag_2:\n      callvalue\n      dup1\n      iszero\n      tag_11\n      jumpi\n      0x00\n      dup1\n      revert\n    tag_11:\n      pop\n      tag_12\n      0x04\n      dup1\n      calldatasize\n      sub\n      dup2\n      add\n      swap1\n      tag_13\n      swap2\n      swap1\n      tag_14\n      jump\t// in\n    tag_13:\n      tag_15\n      jump\t// in\n    tag_12:\n      mload(0x40)\n      tag_16\n      swap2\n      swap1\n      tag_17\n      jump\t// in\n    tag_16:\n      mload(0x40)\n      dup1\n      swap2\n      sub\n      swap1\n      return\n        /* \"fauset.sol\":1150:1424  function withdraw(uint _amt) public {... */\n    tag_3:\n      callvalue\n      dup1\n      iszero\n      tag_18\n      jumpi\n      0x00\n      dup1\n      revert\n    tag_18:\n      pop\n      tag_19\n      0x04\n      dup1\n      calldatasize\n      sub\n      dup2\n      add\n      swap1\n      tag_20\n      swap2\n      swap1\n      tag_21\n      jump\t// in\n    tag_20:\n      tag_22\n      jump\t// in\n    tag_19:\n      stop\n        /* \"fauset.sol\":255:286  uint public cooldown = 24 hours */\n    tag_4:\n      callvalue\n      dup1\n      iszero\n      tag_23\n      jumpi\n      0x00\n      dup1\n      revert\n    tag_23:\n      pop\n      tag_24\n      tag_25\n      jump\t// in\n    tag_24:\n      mload(0x40)\n      tag_26\n      swap2\n      swap1\n      tag_17\n      jump\t// in\n    tag_26:\n      mload(0x40)\n      dup1\n      swap2\n      sub\n      swap1\n      return\n        /* \"fauset.sol\":214:249  uint public claimAmount = 0.1 ether */\n    tag_5:\n      callvalue\n      dup1\n      iszero\n      tag_27\n      jumpi\n      0x00\n      dup1\n      revert\n    tag_27:\n      pop\n      tag_28\n      tag_29\n      jump\t// in\n    tag_28:\n      mload(0x40)\n      tag_30\n      swap2\n      swap1\n      tag_17\n      jump\t// in\n    tag_30:\n      mload(0x40)\n      dup1\n      swap2\n      sub\n      swap1\n      return\n        /* \"fauset.sol\":80:100  address public owner */\n    tag_6:\n      callvalue\n      dup1\n      iszero\n      tag_31\n      jumpi\n      0x00\n      dup1\n      revert\n    tag_31:\n      pop\n      tag_32\n      tag_33\n      jump\t// in\n    tag_32:\n      mload(0x40)\n      tag_34\n      swap2\n      swap1\n      tag_35\n      jump\t// in\n    tag_34:\n      mload(0x40)\n      dup1\n      swap2\n      sub\n      swap1\n      return\n        /* \"fauset.sol\":1489:1585  function checkBalance() public view returns (uint) {... */\n    tag_7:\n      callvalue\n      dup1\n      iszero\n      tag_36\n      jumpi\n      0x00\n      dup1\n      revert\n    tag_36:\n      pop\n      tag_37\n      tag_38\n      jump\t// in\n    tag_37:\n      mload(0x40)\n      tag_39\n      swap2\n      swap1\n      tag_17\n      jump\t// in\n    tag_39:\n      mload(0x40)\n      dup1\n      swap2\n      sub\n      swap1\n      return\n        /* \"fauset.sol\":965:1080  function deposit() public payable {... */\n    tag_8:\n      tag_40\n      tag_41\n      jump\t// in\n    tag_40:\n      stop\n        /* \"fauset.sol\":447:896  function requestEth() public {... */\n    tag_9:\n      callvalue\n      dup1\n      iszero\n      tag_42\n      jumpi\n      0x00\n      dup1\n      revert\n    tag_42:\n      pop\n      tag_43\n      tag_44\n      jump\t// in\n    tag_43:\n      stop\n        /* \"fauset.sol\":165:208  mapping(address => uint) public lastClaimed */\n    tag_15:\n      mstore(0x20, 0x01)\n      dup1\n      0x00\n      mstore\n      keccak256(0x00, 0x40)\n      0x00\n      swap2\n      pop\n      swap1\n      pop\n      sload\n      dup2\n      jump\t// out\n        /* \"fauset.sol\":1150:1424  function withdraw(uint _amt) public {... */\n    tag_22:\n        /* \"fauset.sol\":1218:1223  owner */\n      0x00\n      dup1\n      sload\n      swap1\n      0x0100\n      exp\n      swap1\n      div\n      0xffffffffffffffffffffffffffffffffffffffff\n      and\n        /* \"fauset.sol\":1204:1223  msg.sender == owner */\n      0xffffffffffffffffffffffffffffffffffffffff\n      and\n        /* \"fauset.sol\":1204:1214  msg.sender */\n      caller\n        /* \"fauset.sol\":1204:1223  msg.sender == owner */\n      0xffffffffffffffffffffffffffffffffffffffff\n      and\n      eq\n        /* \"fauset.sol\":1196:1255  require(msg.sender == owner, \"Only the owner can withdraw\") */\n      tag_46\n      jumpi\n      mload(0x40)\n      0x08c379a000000000000000000000000000000000000000000000000000000000\n      dup2\n      mstore\n      0x04\n      add\n      tag_47\n      swap1\n      tag_48\n      jump\t// in\n    tag_47:\n      mload(0x40)\n      dup1\n      swap2\n      sub\n      swap1\n      revert\n    tag_46:\n        /* \"fauset.sol\":1281:1302  address(this).balance */\n      selfbalance\n        /* \"fauset.sol\":1273:1277  _amt */\n      dup2\n        /* \"fauset.sol\":1273:1302  _amt <= address(this).balance */\n      gt\n      iszero\n        /* \"fauset.sol\":1265:1323  require(_amt <= address(this).balance, \"Not enough funds\") */\n      tag_49\n      jumpi\n      mload(0x40)\n      0x08c379a000000000000000000000000000000000000000000000000000000000\n      dup2\n      mstore\n      0x04\n      add\n      tag_50\n      swap1\n      tag_51\n      jump\t// in\n    tag_50:\n      mload(0x40)\n      dup1\n      swap2\n      sub\n      swap1\n      revert\n    tag_49:\n        /* \"fauset.sol\":1396:1401  owner */\n      0x00\n      dup1\n      sload\n      swap1\n      0x0100\n      exp\n      swap1\n      div\n      0xffffffffffffffffffffffffffffffffffffffff\n      and\n        /* \"fauset.sol\":1388:1411  payable(owner).transfer */\n      0xffffffffffffffffffffffffffffffffffffffff\n      and\n        /* \"fauset.sol\":1388:1417  payable(owner).transfer(_amt) */\n      0x08fc\n        /* \"fauset.sol\":1412:1416  _amt */\n      dup3\n        /* \"fauset.sol\":1388:1417  payable(owner).transfer(_amt) */\n      swap1\n      dup2\n      iszero\n      mul\n      swap1\n      mload(0x40)\n      0x00\n      mload(0x40)\n      dup1\n      dup4\n      sub\n      dup2\n      dup6\n      dup9\n      dup9\n      call\n      swap4\n      pop\n      pop\n      pop\n      pop\n      iszero\n      dup1\n      iszero\n      tag_53\n      jumpi\n      returndatasize\n      0x00\n      dup1\n      returndatacopy\n      revert(0x00, returndatasize)\n    tag_53:\n      pop\n        /* \"fauset.sol\":1150:1424  function withdraw(uint _amt) public {... */\n      pop\n      jump\t// out\n        /* \"fauset.sol\":255:286  uint public cooldown = 24 hours */\n    tag_25:\n      sload(0x03)\n      dup2\n      jump\t// out\n        /* \"fauset.sol\":214:249  uint public claimAmount = 0.1 ether */\n    tag_29:\n      sload(0x02)\n      dup2\n      jump\t// out\n        /* \"fauset.sol\":80:100  address public owner */\n    tag_33:\n      0x00\n      dup1\n      sload\n      swap1\n      0x0100\n      exp\n      swap1\n      div\n      0xffffffffffffffffffffffffffffffffffffffff\n      and\n      dup2\n      jump\t// out\n        /* \"fauset.sol\":1489:1585  function checkBalance() public view returns (uint) {... */\n    tag_38:\n        /* \"fauset.sol\":1534:1538  uint */\n      0x00\n        /* \"fauset.sol\":1557:1578  address(this).balance */\n      selfbalance\n        /* \"fauset.sol\":1550:1578  return address(this).balance */\n      swap1\n      pop\n        /* \"fauset.sol\":1489:1585  function checkBalance() public view returns (uint) {... */\n      swap1\n      jump\t// out\n        /* \"fauset.sol\":965:1080  function deposit() public payable {... */\n    tag_41:\n        /* \"fauset.sol\":1031:1036  owner */\n      0x00\n      dup1\n      sload\n      swap1\n      0x0100\n      exp\n      swap1\n      div\n      0xffffffffffffffffffffffffffffffffffffffff\n      and\n        /* \"fauset.sol\":1017:1036  msg.sender == owner */\n      0xffffffffffffffffffffffffffffffffffffffff\n      and\n        /* \"fauset.sol\":1017:1027  msg.sender */\n      caller\n        /* \"fauset.sol\":1017:1036  msg.sender == owner */\n      0xffffffffffffffffffffffffffffffffffffffff\n      and\n      eq\n        /* \"fauset.sol\":1009:1073  require(msg.sender == owner, \"Only the owner can deposit funds\") */\n      tag_56\n      jumpi\n      mload(0x40)\n      0x08c379a000000000000000000000000000000000000000000000000000000000\n      dup2\n      mstore\n      0x04\n      add\n      tag_57\n      swap1\n      tag_58\n      jump\t// in\n    tag_57:\n      mload(0x40)\n      dup1\n      swap2\n      sub\n      swap1\n      revert\n    tag_56:\n        /* \"fauset.sol\":965:1080  function deposit() public payable {... */\n      jump\t// out\n        /* \"fauset.sol\":447:896  function requestEth() public {... */\n    tag_44:\n        /* \"fauset.sol\":539:547  cooldown */\n      sload(0x03)\n        /* \"fauset.sol\":513:524  lastClaimed */\n      0x01\n        /* \"fauset.sol\":513:536  lastClaimed[msg.sender] */\n      0x00\n        /* \"fauset.sol\":525:535  msg.sender */\n      caller\n        /* \"fauset.sol\":513:536  lastClaimed[msg.sender] */\n      0xffffffffffffffffffffffffffffffffffffffff\n      and\n      0xffffffffffffffffffffffffffffffffffffffff\n      and\n      dup2\n      mstore\n      0x20\n      add\n      swap1\n      dup2\n      mstore\n      0x20\n      add\n      0x00\n      keccak256\n      sload\n        /* \"fauset.sol\":513:547  lastClaimed[msg.sender] + cooldown */\n      tag_60\n      swap2\n      swap1\n      tag_61\n      jump\t// in\n    tag_60:\n        /* \"fauset.sol\":494:509  block.timestamp */\n      timestamp\n        /* \"fauset.sol\":494:547  block.timestamp >= lastClaimed[msg.sender] + cooldown */\n      lt\n      iszero\n        /* \"fauset.sol\":486:590  require(block.timestamp >= lastClaimed[msg.sender] + cooldown, \"You can only claim once every 24 hours\") */\n      tag_62\n      jumpi\n      mload(0x40)\n      0x08c379a000000000000000000000000000000000000000000000000000000000\n      dup2\n      mstore\n      0x04\n      add\n      tag_63\n      swap1\n      tag_64\n      jump\t// in\n    tag_63:\n      mload(0x40)\n      dup1\n      swap2\n      sub\n      swap1\n      revert\n    tag_62:\n        /* \"fauset.sol\":633:644  claimAmount */\n      sload(0x02)\n        /* \"fauset.sol\":608:629  address(this).balance */\n      selfbalance\n        /* \"fauset.sol\":608:644  address(this).balance >= claimAmount */\n      lt\n      iszero\n        /* \"fauset.sol\":600:681  require(address(this).balance >= claimAmount, \"Faucet doesn't have enough funds\") */\n      tag_65\n      jumpi\n      mload(0x40)\n      0x08c379a000000000000000000000000000000000000000000000000000000000\n      dup2\n      mstore\n      0x04\n      add\n      tag_66\n      swap1\n      tag_67\n      jump\t// in\n    tag_66:\n      mload(0x40)\n      dup1\n      swap2\n      sub\n      swap1\n      revert\n    tag_65:\n        /* \"fauset.sol\":758:773  block.timestamp */\n      timestamp\n        /* \"fauset.sol\":732:743  lastClaimed */\n      0x01\n        /* \"fauset.sol\":732:755  lastClaimed[msg.sender] */\n      0x00\n        /* \"fauset.sol\":744:754  msg.sender */\n      caller\n        /* \"fauset.sol\":732:755  lastClaimed[msg.sender] */\n      0xffffffffffffffffffffffffffffffffffffffff\n      and\n      0xffffffffffffffffffffffffffffffffffffffff\n      and\n      dup2\n      mstore\n      0x20\n      add\n      swap1\n      dup2\n      mstore\n      0x20\n      add\n      0x00\n      keccak256\n        /* \"fauset.sol\":732:773  lastClaimed[msg.sender] = block.timestamp */\n      dup2\n      swap1\n      sstore\n      pop\n        /* \"fauset.sol\":856:866  msg.sender */\n      caller\n        /* \"fauset.sol\":848:876  payable(msg.sender).transfer */\n      0xffffffffffffffffffffffffffffffffffffffff\n      and\n        /* \"fauset.sol\":848:889  payable(msg.sender).transfer(claimAmount) */\n      0x08fc\n        /* \"fauset.sol\":877:888  claimAmount */\n      sload(0x02)\n        /* \"fauset.sol\":848:889  payable(msg.sender).transfer(claimAmount) */\n      swap1\n      dup2\n      iszero\n      mul\n      swap1\n      mload(0x40)\n      0x00\n      mload(0x40)\n      dup1\n      dup4\n      sub\n      dup2\n      dup6\n      dup9\n      dup9\n      call\n      swap4\n      pop\n      pop\n      pop\n      pop\n      iszero\n      dup1\n      iszero\n      tag_69\n      jumpi\n      returndatasize\n      0x00\n      dup1\n      returndatacopy\n      revert(0x00, returndatasize)\n    tag_69:\n      pop\n        /* \"fauset.sol\":447:896  function requestEth() public {... */\n      jump\t// out\n        /* \"#utility.yul\":88:205   */\n    tag_71:\n        /* \"#utility.yul\":197:198   */\n      0x00\n        /* \"#utility.yul\":194:195   */\n      dup1\n        /* \"#utility.yul\":187:199   */\n      revert\n        /* \"#utility.yul\":334:460   */\n    tag_73:\n        /* \"#utility.yul\":371:378   */\n      0x00\n        /* \"#utility.yul\":411:453   */\n      0xffffffffffffffffffffffffffffffffffffffff\n        /* \"#utility.yul\":404:409   */\n      dup3\n        /* \"#utility.yul\":400:454   */\n      and\n        /* \"#utility.yul\":389:454   */\n      swap1\n      pop\n        /* \"#utility.yul\":334:460   */\n      swap2\n      swap1\n      pop\n      jump\t// out\n        /* \"#utility.yul\":466:562   */\n    tag_74:\n        /* \"#utility.yul\":503:510   */\n      0x00\n        /* \"#utility.yul\":532:556   */\n      tag_100\n        /* \"#utility.yul\":550:555   */\n      dup3\n        /* \"#utility.yul\":532:556   */\n      tag_73\n      jump\t// in\n    tag_100:\n        /* \"#utility.yul\":521:556   */\n      swap1\n      pop\n        /* \"#utility.yul\":466:562   */\n      swap2\n      swap1\n      pop\n      jump\t// out\n        /* \"#utility.yul\":568:690   */\n    tag_75:\n        /* \"#utility.yul\":641:665   */\n      tag_102\n        /* \"#utility.yul\":659:664   */\n      dup2\n        /* \"#utility.yul\":641:665   */\n      tag_74\n      jump\t// in\n    tag_102:\n        /* \"#utility.yul\":634:639   */\n      dup2\n        /* \"#utility.yul\":631:666   */\n      eq\n        /* \"#utility.yul\":621:684   */\n      tag_103\n      jumpi\n        /* \"#utility.yul\":680:681   */\n      0x00\n        /* \"#utility.yul\":677:678   */\n      dup1\n        /* \"#utility.yul\":670:682   */\n      revert\n        /* \"#utility.yul\":621:684   */\n    tag_103:\n        /* \"#utility.yul\":568:690   */\n      pop\n      jump\t// out\n        /* \"#utility.yul\":696:835   */\n    tag_76:\n        /* \"#utility.yul\":742:747   */\n      0x00\n        /* \"#utility.yul\":780:786   */\n      dup2\n        /* \"#utility.yul\":767:787   */\n      calldataload\n        /* \"#utility.yul\":758:787   */\n      swap1\n      pop\n        /* \"#utility.yul\":796:829   */\n      tag_105\n        /* \"#utility.yul\":823:828   */\n      dup2\n        /* \"#utility.yul\":796:829   */\n      tag_75\n      jump\t// in\n    tag_105:\n        /* \"#utility.yul\":696:835   */\n      swap3\n      swap2\n      pop\n      pop\n      jump\t// out\n        /* \"#utility.yul\":841:1170   */\n    tag_14:\n        /* \"#utility.yul\":900:906   */\n      0x00\n        /* \"#utility.yul\":949:951   */\n      0x20\n        /* \"#utility.yul\":937:946   */\n      dup3\n        /* \"#utility.yul\":928:935   */\n      dup5\n        /* \"#utility.yul\":924:947   */\n      sub\n        /* \"#utility.yul\":920:952   */\n      slt\n        /* \"#utility.yul\":917:1036   */\n      iszero\n      tag_107\n      jumpi\n        /* \"#utility.yul\":955:1034   */\n      tag_108\n      tag_71\n      jump\t// in\n    tag_108:\n        /* \"#utility.yul\":917:1036   */\n    tag_107:\n        /* \"#utility.yul\":1075:1076   */\n      0x00\n        /* \"#utility.yul\":1100:1153   */\n      tag_109\n        /* \"#utility.yul\":1145:1152   */\n      dup5\n        /* \"#utility.yul\":1136:1142   */\n      dup3\n        /* \"#utility.yul\":1125:1134   */\n      dup6\n        /* \"#utility.yul\":1121:1143   */\n      add\n        /* \"#utility.yul\":1100:1153   */\n      tag_76\n      jump\t// in\n    tag_109:\n        /* \"#utility.yul\":1090:1153   */\n      swap2\n      pop\n        /* \"#utility.yul\":1046:1163   */\n      pop\n        /* \"#utility.yul\":841:1170   */\n      swap3\n      swap2\n      pop\n      pop\n      jump\t// out\n        /* \"#utility.yul\":1176:1253   */\n    tag_77:\n        /* \"#utility.yul\":1213:1220   */\n      0x00\n        /* \"#utility.yul\":1242:1247   */\n      dup2\n        /* \"#utility.yul\":1231:1247   */\n      swap1\n      pop\n        /* \"#utility.yul\":1176:1253   */\n      swap2\n      swap1\n      pop\n      jump\t// out\n        /* \"#utility.yul\":1259:1377   */\n    tag_78:\n        /* \"#utility.yul\":1346:1370   */\n      tag_112\n        /* \"#utility.yul\":1364:1369   */\n      dup2\n        /* \"#utility.yul\":1346:1370   */\n      tag_77\n      jump\t// in\n    tag_112:\n        /* \"#utility.yul\":1341:1344   */\n      dup3\n        /* \"#utility.yul\":1334:1371   */\n      mstore\n        /* \"#utility.yul\":1259:1377   */\n      pop\n      pop\n      jump\t// out\n        /* \"#utility.yul\":1383:1605   */\n    tag_17:\n        /* \"#utility.yul\":1476:1480   */\n      0x00\n        /* \"#utility.yul\":1514:1516   */\n      0x20\n        /* \"#utility.yul\":1503:1512   */\n      dup3\n        /* \"#utility.yul\":1499:1517   */\n      add\n        /* \"#utility.yul\":1491:1517   */\n      swap1\n      pop\n        /* \"#utility.yul\":1527:1598   */\n      tag_114\n        /* \"#utility.yul\":1595:1596   */\n      0x00\n        /* \"#utility.yul\":1584:1593   */\n      dup4\n        /* \"#utility.yul\":1580:1597   */\n      add\n        /* \"#utility.yul\":1571:1577   */\n      dup5\n        /* \"#utility.yul\":1527:1598   */\n      tag_78\n      jump\t// in\n    tag_114:\n        /* \"#utility.yul\":1383:1605   */\n      swap3\n      swap2\n      pop\n      pop\n      jump\t// out\n        /* \"#utility.yul\":1611:1733   */\n    tag_79:\n        /* \"#utility.yul\":1684:1708   */\n      tag_116\n        /* \"#utility.yul\":1702:1707   */\n      dup2\n        /* \"#utility.yul\":1684:1708   */\n      tag_77\n      jump\t// in\n    tag_116:\n        /* \"#utility.yul\":1677:1682   */\n      dup2\n        /* \"#utility.yul\":1674:1709   */\n      eq\n        /* \"#utility.yul\":1664:1727   */\n      tag_117\n      jumpi\n        /* \"#utility.yul\":1723:1724   */\n      0x00\n        /* \"#utility.yul\":1720:1721   */\n      dup1\n        /* \"#utility.yul\":1713:1725   */\n      revert\n        /* \"#utility.yul\":1664:1727   */\n    tag_117:\n        /* \"#utility.yul\":1611:1733   */\n      pop\n      jump\t// out\n        /* \"#utility.yul\":1739:1878   */\n    tag_80:\n        /* \"#utility.yul\":1785:1790   */\n      0x00\n        /* \"#utility.yul\":1823:1829   */\n      dup2\n        /* \"#utility.yul\":1810:1830   */\n      calldataload\n        /* \"#utility.yul\":1801:1830   */\n      swap1\n      pop\n        /* \"#utility.yul\":1839:1872   */\n      tag_119\n        /* \"#utility.yul\":1866:1871   */\n      dup2\n        /* \"#utility.yul\":1839:1872   */\n      tag_79\n      jump\t// in\n    tag_119:\n        /* \"#utility.yul\":1739:1878   */\n      swap3\n      swap2\n      pop\n      pop\n      jump\t// out\n        /* \"#utility.yul\":1884:2213   */\n    tag_21:\n        /* \"#utility.yul\":1943:1949   */\n      0x00\n        /* \"#utility.yul\":1992:1994   */\n      0x20\n        /* \"#utility.yul\":1980:1989   */\n      dup3\n        /* \"#utility.yul\":1971:1978   */\n      dup5\n        /* \"#utility.yul\":1967:1990   */\n      sub\n        /* \"#utility.yul\":1963:1995   */\n      slt\n        /* \"#utility.yul\":1960:2079   */\n      iszero\n      tag_121\n      jumpi\n        /* \"#utility.yul\":1998:2077   */\n      tag_122\n      tag_71\n      jump\t// in\n    tag_122:\n        /* \"#utility.yul\":1960:2079   */\n    tag_121:\n        /* \"#utility.yul\":2118:2119   */\n      0x00\n        /* \"#utility.yul\":2143:2196   */\n      tag_123\n        /* \"#utility.yul\":2188:2195   */\n      dup5\n        /* \"#utility.yul\":2179:2185   */\n      dup3\n        /* \"#utility.yul\":2168:2177   */\n      dup6\n        /* \"#utility.yul\":2164:2186   */\n      add\n        /* \"#utility.yul\":2143:2196   */\n      tag_80\n      jump\t// in\n    tag_123:\n        /* \"#utility.yul\":2133:2196   */\n      swap2\n      pop\n        /* \"#utility.yul\":2089:2206   */\n      pop\n        /* \"#utility.yul\":1884:2213   */\n      swap3\n      swap2\n      pop\n      pop\n      jump\t// out\n        /* \"#utility.yul\":2219:2337   */\n    tag_81:\n        /* \"#utility.yul\":2306:2330   */\n      tag_125\n        /* \"#utility.yul\":2324:2329   */\n      dup2\n        /* \"#utility.yul\":2306:2330   */\n      tag_74\n      jump\t// in\n    tag_125:\n        /* \"#utility.yul\":2301:2304   */\n      dup3\n        /* \"#utility.yul\":2294:2331   */\n      mstore\n        /* \"#utility.yul\":2219:2337   */\n      pop\n      pop\n      jump\t// out\n        /* \"#utility.yul\":2343:2565   */\n    tag_35:\n        /* \"#utility.yul\":2436:2440   */\n      0x00\n        /* \"#utility.yul\":2474:2476   */\n      0x20\n        /* \"#utility.yul\":2463:2472   */\n      dup3\n        /* \"#utility.yul\":2459:2477   */\n      add\n        /* \"#utility.yul\":2451:2477   */\n      swap1\n      pop\n        /* \"#utility.yul\":2487:2558   */\n      tag_127\n        /* \"#utility.yul\":2555:2556   */\n      0x00\n        /* \"#utility.yul\":2544:2553   */\n      dup4\n        /* \"#utility.yul\":2540:2557   */\n      add\n        /* \"#utility.yul\":2531:2537   */\n      dup5\n        /* \"#utility.yul\":2487:2558   */\n      tag_81\n      jump\t// in\n    tag_127:\n        /* \"#utility.yul\":2343:2565   */\n      swap3\n      swap2\n      pop\n      pop\n      jump\t// out\n        /* \"#utility.yul\":2571:2740   */\n    tag_82:\n        /* \"#utility.yul\":2655:2666   */\n      0x00\n        /* \"#utility.yul\":2689:2695   */\n      dup3\n        /* \"#utility.yul\":2684:2687   */\n      dup3\n        /* \"#utility.yul\":2677:2696   */\n      mstore\n        /* \"#utility.yul\":2729:2733   */\n      0x20\n        /* \"#utility.yul\":2724:2727   */\n      dup3\n        /* \"#utility.yul\":2720:2734   */\n      add\n        /* \"#utility.yul\":2705:2734   */\n      swap1\n      pop\n        /* \"#utility.yul\":2571:2740   */\n      swap3\n      swap2\n      pop\n      pop\n      jump\t// out\n        /* \"#utility.yul\":2746:2923   */\n    tag_83:\n        /* \"#utility.yul\":2886:2915   */\n      0x4f6e6c7920746865206f776e65722063616e2077697468647261770000000000\n        /* \"#utility.yul\":2882:2883   */\n      0x00\n        /* \"#utility.yul\":2874:2880   */\n      dup3\n        /* \"#utility.yul\":2870:2884   */\n      add\n        /* \"#utility.yul\":2863:2916   */\n      mstore\n        /* \"#utility.yul\":2746:2923   */\n      pop\n      jump\t// out\n        /* \"#utility.yul\":2929:3295   */\n    tag_84:\n        /* \"#utility.yul\":3071:3074   */\n      0x00\n        /* \"#utility.yul\":3092:3159   */\n      tag_131\n        /* \"#utility.yul\":3156:3158   */\n      0x1b\n        /* \"#utility.yul\":3151:3154   */\n      dup4\n        /* \"#utility.yul\":3092:3159   */\n      tag_82\n      jump\t// in\n    tag_131:\n        /* \"#utility.yul\":3085:3159   */\n      swap2\n      pop\n        /* \"#utility.yul\":3168:3261   */\n      tag_132\n        /* \"#utility.yul\":3257:3260   */\n      dup3\n        /* \"#utility.yul\":3168:3261   */\n      tag_83\n      jump\t// in\n    tag_132:\n        /* \"#utility.yul\":3286:3288   */\n      0x20\n        /* \"#utility.yul\":3281:3284   */\n      dup3\n        /* \"#utility.yul\":3277:3289   */\n      add\n        /* \"#utility.yul\":3270:3289   */\n      swap1\n      pop\n        /* \"#utility.yul\":2929:3295   */\n      swap2\n      swap1\n      pop\n      jump\t// out\n        /* \"#utility.yul\":3301:3720   */\n    tag_48:\n        /* \"#utility.yul\":3467:3471   */\n      0x00\n        /* \"#utility.yul\":3505:3507   */\n      0x20\n        /* \"#utility.yul\":3494:3503   */\n      dup3\n        /* \"#utility.yul\":3490:3508   */\n      add\n        /* \"#utility.yul\":3482:3508   */\n      swap1\n      pop\n        /* \"#utility.yul\":3554:3563   */\n      dup2\n        /* \"#utility.yul\":3548:3552   */\n      dup2\n        /* \"#utility.yul\":3544:3564   */\n      sub\n        /* \"#utility.yul\":3540:3541   */\n      0x00\n        /* \"#utility.yul\":3529:3538   */\n      dup4\n        /* \"#utility.yul\":3525:3542   */\n      add\n        /* \"#utility.yul\":3518:3565   */\n      mstore\n        /* \"#utility.yul\":3582:3713   */\n      tag_134\n        /* \"#utility.yul\":3708:3712   */\n      dup2\n        /* \"#utility.yul\":3582:3713   */\n      tag_84\n      jump\t// in\n    tag_134:\n        /* \"#utility.yul\":3574:3713   */\n      swap1\n      pop\n        /* \"#utility.yul\":3301:3720   */\n      swap2\n      swap1\n      pop\n      jump\t// out\n        /* \"#utility.yul\":3726:3892   */\n    tag_85:\n        /* \"#utility.yul\":3866:3884   */\n      0x4e6f7420656e6f7567682066756e647300000000000000000000000000000000\n        /* \"#utility.yul\":3862:3863   */\n      0x00\n        /* \"#utility.yul\":3854:3860   */\n      dup3\n        /* \"#utility.yul\":3850:3864   */\n      add\n        /* \"#utility.yul\":3843:3885   */\n      mstore\n        /* \"#utility.yul\":3726:3892   */\n      pop\n      jump\t// out\n        /* \"#utility.yul\":3898:4264   */\n    tag_86:\n        /* \"#utility.yul\":4040:4043   */\n      0x00\n        /* \"#utility.yul\":4061:4128   */\n      tag_137\n        /* \"#utility.yul\":4125:4127   */\n      0x10\n        /* \"#utility.yul\":4120:4123   */\n      dup4\n        /* \"#utility.yul\":4061:4128   */\n      tag_82\n      jump\t// in\n    tag_137:\n        /* \"#utility.yul\":4054:4128   */\n      swap2\n      pop\n        /* \"#utility.yul\":4137:4230   */\n      tag_138\n        /* \"#utility.yul\":4226:4229   */\n      dup3\n        /* \"#utility.yul\":4137:4230   */\n      tag_85\n      jump\t// in\n    tag_138:\n        /* \"#utility.yul\":4255:4257   */\n      0x20\n        /* \"#utility.yul\":4250:4253   */\n      dup3\n        /* \"#utility.yul\":4246:4258   */\n      add\n        /* \"#utility.yul\":4239:4258   */\n      swap1\n      pop\n        /* \"#utility.yul\":3898:4264   */\n      swap2\n      swap1\n      pop\n      jump\t// out\n        /* \"#utility.yul\":4270:4689   */\n    tag_51:\n        /* \"#utility.yul\":4436:4440   */\n      0x00\n        /* \"#utility.yul\":4474:4476   */\n      0x20\n        /* \"#utility.yul\":4463:4472   */\n      dup3\n        /* \"#utility.yul\":4459:4477   */\n      add\n        /* \"#utility.yul\":4451:4477   */\n      swap1\n      pop\n        /* \"#utility.yul\":4523:4532   */\n      dup2\n        /* \"#utility.yul\":4517:4521   */\n      dup2\n        /* \"#utility.yul\":4513:4533   */\n      sub\n        /* \"#utility.yul\":4509:4510   */\n      0x00\n        /* \"#utility.yul\":4498:4507   */\n      dup4\n        /* \"#utility.yul\":4494:4511   */\n      add\n        /* \"#utility.yul\":4487:4534   */\n      mstore\n        /* \"#utility.yul\":4551:4682   */\n      tag_140\n        /* \"#utility.yul\":4677:4681   */\n      dup2\n        /* \"#utility.yul\":4551:4682   */\n      tag_86\n      jump\t// in\n    tag_140:\n        /* \"#utility.yul\":4543:4682   */\n      swap1\n      pop\n        /* \"#utility.yul\":4270:4689   */\n      swap2\n      swap1\n      pop\n      jump\t// out\n        /* \"#utility.yul\":4695:4877   */\n    tag_87:\n        /* \"#utility.yul\":4835:4869   */\n      0x4f6e6c7920746865206f776e65722063616e206465706f7369742066756e6473\n        /* \"#utility.yul\":4831:4832   */\n      0x00\n        /* \"#utility.yul\":4823:4829   */\n      dup3\n        /* \"#utility.yul\":4819:4833   */\n      add\n        /* \"#utility.yul\":4812:4870   */\n      mstore\n        /* \"#utility.yul\":4695:4877   */\n      pop\n      jump\t// out\n        /* \"#utility.yul\":4883:5249   */\n    tag_88:\n        /* \"#utility.yul\":5025:5028   */\n      0x00\n        /* \"#utility.yul\":5046:5113   */\n      tag_143\n        /* \"#utility.yul\":5110:5112   */\n      0x20\n        /* \"#utility.yul\":5105:5108   */\n      dup4\n        /* \"#utility.yul\":5046:5113   */\n      tag_82\n      jump\t// in\n    tag_143:\n        /* \"#utility.yul\":5039:5113   */\n      swap2\n      pop\n        /* \"#utility.yul\":5122:5215   */\n      tag_144\n        /* \"#utility.yul\":5211:5214   */\n      dup3\n        /* \"#utility.yul\":5122:5215   */\n      tag_87\n      jump\t// in\n    tag_144:\n        /* \"#utility.yul\":5240:5242   */\n      0x20\n        /* \"#utility.yul\":5235:5238   */\n      dup3\n        /* \"#utility.yul\":5231:5243   */\n      add\n        /* \"#utility.yul\":5224:5243   */\n      swap1\n      pop\n        /* \"#utility.yul\":4883:5249   */\n      swap2\n      swap1\n      pop\n      jump\t// out\n        /* \"#utility.yul\":5255:5674   */\n    tag_58:\n        /* \"#utility.yul\":5421:5425   */\n      0x00\n        /* \"#utility.yul\":5459:5461   */\n      0x20\n        /* \"#utility.yul\":5448:5457   */\n      dup3\n        /* \"#utility.yul\":5444:5462   */\n      add\n        /* \"#utility.yul\":5436:5462   */\n      swap1\n      pop\n        /* \"#utility.yul\":5508:5517   */\n      dup2\n        /* \"#utility.yul\":5502:5506   */\n      dup2\n        /* \"#utility.yul\":5498:5518   */\n      sub\n        /* \"#utility.yul\":5494:5495   */\n      0x00\n        /* \"#utility.yul\":5483:5492   */\n      dup4\n        /* \"#utility.yul\":5479:5496   */\n      add\n        /* \"#utility.yul\":5472:5519   */\n      mstore\n        /* \"#utility.yul\":5536:5667   */\n      tag_146\n        /* \"#utility.yul\":5662:5666   */\n      dup2\n        /* \"#utility.yul\":5536:5667   */\n      tag_88\n      jump\t// in\n    tag_146:\n        /* \"#utility.yul\":5528:5667   */\n      swap1\n      pop\n        /* \"#utility.yul\":5255:5674   */\n      swap2\n      swap1\n      pop\n      jump\t// out\n        /* \"#utility.yul\":5680:5860   */\n    tag_89:\n        /* \"#utility.yul\":5728:5805   */\n      0x4e487b7100000000000000000000000000000000000000000000000000000000\n        /* \"#utility.yul\":5725:5726   */\n      0x00\n        /* \"#utility.yul\":5718:5806   */\n      mstore\n        /* \"#utility.yul\":5825:5829   */\n      0x11\n        /* \"#utility.yul\":5822:5823   */\n      0x04\n        /* \"#utility.yul\":5815:5830   */\n      mstore\n        /* \"#utility.yul\":5849:5853   */\n      0x24\n        /* \"#utility.yul\":5846:5847   */\n      0x00\n        /* \"#utility.yul\":5839:5854   */\n      revert\n        /* \"#utility.yul\":5866:6057   */\n    tag_61:\n        /* \"#utility.yul\":5906:5909   */\n      0x00\n        /* \"#utility.yul\":5925:5945   */\n      tag_149\n        /* \"#utility.yul\":5943:5944   */\n      dup3\n        /* \"#utility.yul\":5925:5945   */\n      tag_77\n      jump\t// in\n    tag_149:\n        /* \"#utility.yul\":5920:5945   */\n      swap2\n      pop\n        /* \"#utility.yul\":5959:5979   */\n      tag_150\n        /* \"#utility.yul\":5977:5978   */\n      dup4\n        /* \"#utility.yul\":5959:5979   */\n      tag_77\n      jump\t// in\n    tag_150:\n        /* \"#utility.yul\":5954:5979   */\n      swap3\n      pop\n        /* \"#utility.yul\":6002:6003   */\n      dup3\n        /* \"#utility.yul\":5999:6000   */\n      dup3\n        /* \"#utility.yul\":5995:6004   */\n      add\n        /* \"#utility.yul\":5988:6004   */\n      swap1\n      pop\n        /* \"#utility.yul\":6023:6026   */\n      dup1\n        /* \"#utility.yul\":6020:6021   */\n      dup3\n        /* \"#utility.yul\":6017:6027   */\n      gt\n        /* \"#utility.yul\":6014:6050   */\n      iszero\n      tag_151\n      jumpi\n        /* \"#utility.yul\":6030:6048   */\n      tag_152\n      tag_89\n      jump\t// in\n    tag_152:\n        /* \"#utility.yul\":6014:6050   */\n    tag_151:\n        /* \"#utility.yul\":5866:6057   */\n      swap3\n      swap2\n      pop\n      pop\n      jump\t// out\n        /* \"#utility.yul\":6063:6288   */\n    tag_90:\n        /* \"#utility.yul\":6203:6237   */\n      0x596f752063616e206f6e6c7920636c61696d206f6e6365206576657279203234\n        /* \"#utility.yul\":6199:6200   */\n      0x00\n        /* \"#utility.yul\":6191:6197   */\n      dup3\n        /* \"#utility.yul\":6187:6201   */\n      add\n        /* \"#utility.yul\":6180:6238   */\n      mstore\n        /* \"#utility.yul\":6272:6280   */\n      0x20686f7572730000000000000000000000000000000000000000000000000000\n        /* \"#utility.yul\":6267:6269   */\n      0x20\n        /* \"#utility.yul\":6259:6265   */\n      dup3\n        /* \"#utility.yul\":6255:6270   */\n      add\n        /* \"#utility.yul\":6248:6281   */\n      mstore\n        /* \"#utility.yul\":6063:6288   */\n      pop\n      jump\t// out\n        /* \"#utility.yul\":6294:6660   */\n    tag_91:\n        /* \"#utility.yul\":6436:6439   */\n      0x00\n        /* \"#utility.yul\":6457:6524   */\n      tag_155\n        /* \"#utility.yul\":6521:6523   */\n      0x26\n        /* \"#utility.yul\":6516:6519   */\n      dup4\n        /* \"#utility.yul\":6457:6524   */\n      tag_82\n      jump\t// in\n    tag_155:\n        /* \"#utility.yul\":6450:6524   */\n      swap2\n      pop\n        /* \"#utility.yul\":6533:6626   */\n      tag_156\n        /* \"#utility.yul\":6622:6625   */\n      dup3\n        /* \"#utility.yul\":6533:6626   */\n      tag_90\n      jump\t// in\n    tag_156:\n        /* \"#utility.yul\":6651:6653   */\n      0x40\n        /* \"#utility.yul\":6646:6649   */\n      dup3\n        /* \"#utility.yul\":6642:6654   */\n      add\n        /* \"#utility.yul\":6635:6654   */\n      swap1\n      pop\n        /* \"#utility.yul\":6294:6660   */\n      swap2\n      swap1\n      pop\n      jump\t// out\n        /* \"#utility.yul\":6666:7085   */\n    tag_64:\n        /* \"#utility.yul\":6832:6836   */\n      0x00\n        /* \"#utility.yul\":6870:6872   */\n      0x20\n        /* \"#utility.yul\":6859:6868   */\n      dup3\n        /* \"#utility.yul\":6855:6873   */\n      add\n        /* \"#utility.yul\":6847:6873   */\n      swap1\n      pop\n        /* \"#utility.yul\":6919:6928   */\n      dup2\n        /* \"#utility.yul\":6913:6917   */\n      dup2\n        /* \"#utility.yul\":6909:6929   */\n      sub\n        /* \"#utility.yul\":6905:6906   */\n      0x00\n        /* \"#utility.yul\":6894:6903   */\n      dup4\n        /* \"#utility.yul\":6890:6907   */\n      add\n        /* \"#utility.yul\":6883:6930   */\n      mstore\n        /* \"#utility.yul\":6947:7078   */\n      tag_158\n        /* \"#utility.yul\":7073:7077   */\n      dup2\n        /* \"#utility.yul\":6947:7078   */\n      tag_91\n      jump\t// in\n    tag_158:\n        /* \"#utility.yul\":6939:7078   */\n      swap1\n      pop\n        /* \"#utility.yul\":6666:7085   */\n      swap2\n      swap1\n      pop\n      jump\t// out\n        /* \"#utility.yul\":7091:7273   */\n    tag_92:\n        /* \"#utility.yul\":7231:7265   */\n      0x46617563657420646f65736e2774206861766520656e6f7567682066756e6473\n        /* \"#utility.yul\":7227:7228   */\n      0x00\n        /* \"#utility.yul\":7219:7225   */\n      dup3\n        /* \"#utility.yul\":7215:7229   */\n      add\n        /* \"#utility.yul\":7208:7266   */\n      mstore\n        /* \"#utility.yul\":7091:7273   */\n      pop\n      jump\t// out\n        /* \"#utility.yul\":7279:7645   */\n    tag_93:\n        /* \"#utility.yul\":7421:7424   */\n      0x00\n        /* \"#utility.yul\":7442:7509   */\n      tag_161\n        /* \"#utility.yul\":7506:7508   */\n      0x20\n        /* \"#utility.yul\":7501:7504   */\n      dup4\n        /* \"#utility.yul\":7442:7509   */\n      tag_82\n      jump\t// in\n    tag_161:\n        /* \"#utility.yul\":7435:7509   */\n      swap2\n      pop\n        /* \"#utility.yul\":7518:7611   */\n      tag_162\n        /* \"#utility.yul\":7607:7610   */\n      dup3\n        /* \"#utility.yul\":7518:7611   */\n      tag_92\n      jump\t// in\n    tag_162:\n        /* \"#utility.yul\":7636:7638   */\n      0x20\n        /* \"#utility.yul\":7631:7634   */\n      dup3\n        /* \"#utility.yul\":7627:7639   */\n      add\n        /* \"#utility.yul\":7620:7639   */\n      swap1\n      pop\n        /* \"#utility.yul\":7279:7645   */\n      swap2\n      swap1\n      pop\n      jump\t// out\n        /* \"#utility.yul\":7651:8070   */\n    tag_67:\n        /* \"#utility.yul\":7817:7821   */\n      0x00\n        /* \"#utility.yul\":7855:7857   */\n      0x20\n        /* \"#utility.yul\":7844:7853   */\n      dup3\n        /* \"#utility.yul\":7840:7858   */\n      add\n        /* \"#utility.yul\":7832:7858   */\n      swap1\n      pop\n        /* \"#utility.yul\":7904:7913   */\n      dup2\n        /* \"#utility.yul\":7898:7902   */\n      dup2\n        /* \"#utility.yul\":7894:7914   */\n      sub\n        /* \"#utility.yul\":7890:7891   */\n      0x00\n        /* \"#utility.yul\":7879:7888   */\n      dup4\n        /* \"#utility.yul\":7875:7892   */\n      add\n        /* \"#utility.yul\":7868:7915   */\n      mstore\n        /* \"#utility.yul\":7932:8063   */\n      tag_164\n        /* \"#utility.yul\":8058:8062   */\n      dup2\n        /* \"#utility.yul\":7932:8063   */\n      tag_93\n      jump\t// in\n    tag_164:\n        /* \"#utility.yul\":7924:8063   */\n      swap1\n      pop\n        /* \"#utility.yul\":7651:8070   */\n      swap2\n      swap1\n      pop\n      jump\t// out\n\n    auxdata: 0xa2646970667358221220813cd45399ab04f2e82f10824190659f12137fdb999f213b075151d077ceee8664736f6c634300081a0033\n}\n",
				"bytecode": {
					"linkReferences": {},
					"object": "608060405267016345785d8a0000600255620151806003553480156021575f80fd5b50335f806101000a81548173ffffffffffffffffffffffffffffffffffffffff021916908373ffffffffffffffffffffffffffffffffffffffff1602179055506109218061006e5f395ff3fe60806040526004361061007a575f3560e01c80638da5cb5b1161004d5780638da5cb5b14610136578063c71daccb14610160578063d0e30db01461018a578063f192d0a1146101945761007a565b8063013eba921461007e5780632e1a7d4d146100ba578063787a08a6146100e2578063830953ab1461010c575b5f80fd5b348015610089575f80fd5b506100a4600480360381019061009f9190610574565b6101aa565b6040516100b191906105b7565b60405180910390f35b3480156100c5575f80fd5b506100e060048036038101906100db91906105fa565b6101bf565b005b3480156100ed575f80fd5b506100f66102f5565b60405161010391906105b7565b60405180910390f35b348015610117575f80fd5b506101206102fb565b60405161012d91906105b7565b60405180910390f35b348015610141575f80fd5b5061014a610301565b6040516101579190610634565b60405180910390f35b34801561016b575f80fd5b50610174610324565b60405161018191906105b7565b60405180910390f35b61019261032b565b005b34801561019f575f80fd5b506101a86103ba565b005b6001602052805f5260405f205f915090505481565b5f8054906101000a900473ffffffffffffffffffffffffffffffffffffffff1673ffffffffffffffffffffffffffffffffffffffff163373ffffffffffffffffffffffffffffffffffffffff161461024c576040517f08c379a0000000000000000000000000000000000000000000000000000000008152600401610243906106a7565b60405180910390fd5b4781111561028f576040517f08c379a00000000000000000000000000000000000000000000000000000000081526004016102869061070f565b60405180910390fd5b5f8054906101000a900473ffffffffffffffffffffffffffffffffffffffff1673ffffffffffffffffffffffffffffffffffffffff166108fc8290811502906040515f60405180830381858888f193505050501580156102f1573d5f803e3d5ffd5b5050565b60035481565b60025481565b5f8054906101000a900473ffffffffffffffffffffffffffffffffffffffff1681565b5f47905090565b5f8054906101000a900473ffffffffffffffffffffffffffffffffffffffff1673ffffffffffffffffffffffffffffffffffffffff163373ffffffffffffffffffffffffffffffffffffffff16146103b8576040517f08c379a00000000000000000000000000000000000000000000000000000000081526004016103af90610777565b60405180910390fd5b565b60035460015f3373ffffffffffffffffffffffffffffffffffffffff1673ffffffffffffffffffffffffffffffffffffffff1681526020019081526020015f205461040591906107c2565b421015610447576040517f08c379a000000000000000000000000000000000000000000000000000000000815260040161043e90610865565b60405180910390fd5b60025447101561048c576040517f08c379a0000000000000000000000000000000000000000000000000000000008152600401610483906108cd565b60405180910390fd5b4260015f3373ffffffffffffffffffffffffffffffffffffffff1673ffffffffffffffffffffffffffffffffffffffff1681526020019081526020015f20819055503373ffffffffffffffffffffffffffffffffffffffff166108fc60025490811502906040515f60405180830381858888f19350505050158015610513573d5f803e3d5ffd5b50565b5f80fd5b5f73ffffffffffffffffffffffffffffffffffffffff82169050919050565b5f6105438261051a565b9050919050565b61055381610539565b811461055d575f80fd5b50565b5f8135905061056e8161054a565b92915050565b5f6020828403121561058957610588610516565b5b5f61059684828501610560565b91505092915050565b5f819050919050565b6105b18161059f565b82525050565b5f6020820190506105ca5f8301846105a8565b92915050565b6105d98161059f565b81146105e3575f80fd5b50565b5f813590506105f4816105d0565b92915050565b5f6020828403121561060f5761060e610516565b5b5f61061c848285016105e6565b91505092915050565b61062e81610539565b82525050565b5f6020820190506106475f830184610625565b92915050565b5f82825260208201905092915050565b7f4f6e6c7920746865206f776e65722063616e20776974686472617700000000005f82015250565b5f610691601b8361064d565b915061069c8261065d565b602082019050919050565b5f6020820190508181035f8301526106be81610685565b9050919050565b7f4e6f7420656e6f7567682066756e6473000000000000000000000000000000005f82015250565b5f6106f960108361064d565b9150610704826106c5565b602082019050919050565b5f6020820190508181035f830152610726816106ed565b9050919050565b7f4f6e6c7920746865206f776e65722063616e206465706f7369742066756e64735f82015250565b5f61076160208361064d565b915061076c8261072d565b602082019050919050565b5f6020820190508181035f83015261078e81610755565b9050919050565b7f4e487b71000000000000000000000000000000000000000000000000000000005f52601160045260245ffd5b5f6107cc8261059f565b91506107d78361059f565b92508282019050808211156107ef576107ee610795565b5b92915050565b7f596f752063616e206f6e6c7920636c61696d206f6e63652065766572792032345f8201527f20686f7572730000000000000000000000000000000000000000000000000000602082015250565b5f61084f60268361064d565b915061085a826107f5565b604082019050919050565b5f6020820190508181035f83015261087c81610843565b9050919050565b7f46617563657420646f65736e2774206861766520656e6f7567682066756e64735f82015250565b5f6108b760208361064d565b91506108c282610883565b602082019050919050565b5f6020820190508181035f8301526108e4816108ab565b905091905056fea2646970667358221220813cd45399ab04f2e82f10824190659f12137fdb999f213b075151d077ceee8664736f6c634300081a0033",
					"opcodes": "PUSH1 0x80 PUSH1 0x40 MSTORE PUSH8 0x16345785D8A0000 PUSH1 0x2 SSTORE PUSH3 0x15180 PUSH1 0x3 SSTORE CALLVALUE DUP1 ISZERO PUSH1 0x21 JUMPI PUSH0 DUP1 REVERT JUMPDEST POP CALLER PUSH0 DUP1 PUSH2 0x100 EXP DUP2 SLOAD DUP2 PUSH20 0xFFFFFFFFFFFFFFFFFFFFFFFFFFFFFFFFFFFFFFFF MUL NOT AND SWAP1 DUP4 PUSH20 0xFFFFFFFFFFFFFFFFFFFFFFFFFFFFFFFFFFFFFFFF AND MUL OR SWAP1 SSTORE POP PUSH2 0x921 DUP1 PUSH2 0x6E PUSH0 CODECOPY PUSH0 RETURN INVALID PUSH1 0x80 PUSH1 0x40 MSTORE PUSH1 0x4 CALLDATASIZE LT PUSH2 0x7A JUMPI PUSH0 CALLDATALOAD PUSH1 0xE0 SHR DUP1 PUSH4 0x8DA5CB5B GT PUSH2 0x4D JUMPI DUP1 PUSH4 0x8DA5CB5B EQ PUSH2 0x136 JUMPI DUP1 PUSH4 0xC71DACCB EQ PUSH2 0x160 JUMPI DUP1 PUSH4 0xD0E30DB0 EQ PUSH2 0x18A JUMPI DUP1 PUSH4 0xF192D0A1 EQ PUSH2 0x194 JUMPI PUSH2 0x7A JUMP JUMPDEST DUP1 PUSH4 0x13EBA92 EQ PUSH2 0x7E JUMPI DUP1 PUSH4 0x2E1A7D4D EQ PUSH2 0xBA JUMPI DUP1 PUSH4 0x787A08A6 EQ PUSH2 0xE2 JUMPI DUP1 PUSH4 0x830953AB EQ PUSH2 0x10C JUMPI JUMPDEST PUSH0 DUP1 REVERT JUMPDEST CALLVALUE DUP1 ISZERO PUSH2 0x89 JUMPI PUSH0 DUP1 REVERT JUMPDEST POP PUSH2 0xA4 PUSH1 0x4 DUP1 CALLDATASIZE SUB DUP2 ADD SWAP1 PUSH2 0x9F SWAP2 SWAP1 PUSH2 0x574 JUMP JUMPDEST PUSH2 0x1AA JUMP JUMPDEST PUSH1 0x40 MLOAD PUSH2 0xB1 SWAP2 SWAP1 PUSH2 0x5B7 JUMP JUMPDEST PUSH1 0x40 MLOAD DUP1 SWAP2 SUB SWAP1 RETURN JUMPDEST CALLVALUE DUP1 ISZERO PUSH2 0xC5 JUMPI PUSH0 DUP1 REVERT JUMPDEST POP PUSH2 0xE0 PUSH1 0x4 DUP1 CALLDATASIZE SUB DUP2 ADD SWAP1 PUSH2 0xDB SWAP2 SWAP1 PUSH2 0x5FA JUMP JUMPDEST PUSH2 0x1BF JUMP JUMPDEST STOP JUMPDEST CALLVALUE DUP1 ISZERO PUSH2 0xED JUMPI PUSH0 DUP1 REVERT JUMPDEST POP PUSH2 0xF6 PUSH2 0x2F5 JUMP JUMPDEST PUSH1 0x40 MLOAD PUSH2 0x103 SWAP2 SWAP1 PUSH2 0x5B7 JUMP JUMPDEST PUSH1 0x40 MLOAD DUP1 SWAP2 SUB SWAP1 RETURN JUMPDEST CALLVALUE DUP1 ISZERO PUSH2 0x117 JUMPI PUSH0 DUP1 REVERT JUMPDEST POP PUSH2 0x120 PUSH2 0x2FB JUMP JUMPDEST PUSH1 0x40 MLOAD PUSH2 0x12D SWAP2 SWAP1 PUSH2 0x5B7 JUMP JUMPDEST PUSH1 0x40 MLOAD DUP1 SWAP2 SUB SWAP1 RETURN JUMPDEST CALLVALUE DUP1 ISZERO PUSH2 0x141 JUMPI PUSH0 DUP1 REVERT JUMPDEST POP PUSH2 0x14A PUSH2 0x301 JUMP JUMPDEST PUSH1 0x40 MLOAD PUSH2 0x157 SWAP2 SWAP1 PUSH2 0x634 JUMP JUMPDEST PUSH1 0x40 MLOAD DUP1 SWAP2 SUB SWAP1 RETURN JUMPDEST CALLVALUE DUP1 ISZERO PUSH2 0x16B JUMPI PUSH0 DUP1 REVERT JUMPDEST POP PUSH2 0x174 PUSH2 0x324 JUMP JUMPDEST PUSH1 0x40 MLOAD PUSH2 0x181 SWAP2 SWAP1 PUSH2 0x5B7 JUMP JUMPDEST PUSH1 0x40 MLOAD DUP1 SWAP2 SUB SWAP1 RETURN JUMPDEST PUSH2 0x192 PUSH2 0x32B JUMP JUMPDEST STOP JUMPDEST CALLVALUE DUP1 ISZERO PUSH2 0x19F JUMPI PUSH0 DUP1 REVERT JUMPDEST POP PUSH2 0x1A8 PUSH2 0x3BA JUMP JUMPDEST STOP JUMPDEST PUSH1 0x1 PUSH1 0x20 MSTORE DUP1 PUSH0 MSTORE PUSH1 0x40 PUSH0 KECCAK256 PUSH0 SWAP2 POP SWAP1 POP SLOAD DUP2 JUMP JUMPDEST PUSH0 DUP1 SLOAD SWAP1 PUSH2 0x100 EXP SWAP1 DIV PUSH20 0xFFFFFFFFFFFFFFFFFFFFFFFFFFFFFFFFFFFFFFFF AND PUSH20 0xFFFFFFFFFFFFFFFFFFFFFFFFFFFFFFFFFFFFFFFF AND CALLER PUSH20 0xFFFFFFFFFFFFFFFFFFFFFFFFFFFFFFFFFFFFFFFF AND EQ PUSH2 0x24C JUMPI PUSH1 0x40 MLOAD PUSH32 0x8C379A000000000000000000000000000000000000000000000000000000000 DUP2 MSTORE PUSH1 0x4 ADD PUSH2 0x243 SWAP1 PUSH2 0x6A7 JUMP JUMPDEST PUSH1 0x40 MLOAD DUP1 SWAP2 SUB SWAP1 REVERT JUMPDEST SELFBALANCE DUP2 GT ISZERO PUSH2 0x28F JUMPI PUSH1 0x40 MLOAD PUSH32 0x8C379A000000000000000000000000000000000000000000000000000000000 DUP2 MSTORE PUSH1 0x4 ADD PUSH2 0x286 SWAP1 PUSH2 0x70F JUMP JUMPDEST PUSH1 0x40 MLOAD DUP1 SWAP2 SUB SWAP1 REVERT JUMPDEST PUSH0 DUP1 SLOAD SWAP1 PUSH2 0x100 EXP SWAP1 DIV PUSH20 0xFFFFFFFFFFFFFFFFFFFFFFFFFFFFFFFFFFFFFFFF AND PUSH20 0xFFFFFFFFFFFFFFFFFFFFFFFFFFFFFFFFFFFFFFFF AND PUSH2 0x8FC DUP3 SWAP1 DUP2 ISZERO MUL SWAP1 PUSH1 0x40 MLOAD PUSH0 PUSH1 0x40 MLOAD DUP1 DUP4 SUB DUP2 DUP6 DUP9 DUP9 CALL SWAP4 POP POP POP POP ISZERO DUP1 ISZERO PUSH2 0x2F1 JUMPI RETURNDATASIZE PUSH0 DUP1 RETURNDATACOPY RETURNDATASIZE PUSH0 REVERT JUMPDEST POP POP JUMP JUMPDEST PUSH1 0x3 SLOAD DUP2 JUMP JUMPDEST PUSH1 0x2 SLOAD DUP2 JUMP JUMPDEST PUSH0 DUP1 SLOAD SWAP1 PUSH2 0x100 EXP SWAP1 DIV PUSH20 0xFFFFFFFFFFFFFFFFFFFFFFFFFFFFFFFFFFFFFFFF AND DUP2 JUMP JUMPDEST PUSH0 SELFBALANCE SWAP1 POP SWAP1 JUMP JUMPDEST PUSH0 DUP1 SLOAD SWAP1 PUSH2 0x100 EXP SWAP1 DIV PUSH20 0xFFFFFFFFFFFFFFFFFFFFFFFFFFFFFFFFFFFFFFFF AND PUSH20 0xFFFFFFFFFFFFFFFFFFFFFFFFFFFFFFFFFFFFFFFF AND CALLER PUSH20 0xFFFFFFFFFFFFFFFFFFFFFFFFFFFFFFFFFFFFFFFF AND EQ PUSH2 0x3B8 JUMPI PUSH1 0x40 MLOAD PUSH32 0x8C379A000000000000000000000000000000000000000000000000000000000 DUP2 MSTORE PUSH1 0x4 ADD PUSH2 0x3AF SWAP1 PUSH2 0x777 JUMP JUMPDEST PUSH1 0x40 MLOAD DUP1 SWAP2 SUB SWAP1 REVERT JUMPDEST JUMP JUMPDEST PUSH1 0x3 SLOAD PUSH1 0x1 PUSH0 CALLER PUSH20 0xFFFFFFFFFFFFFFFFFFFFFFFFFFFFFFFFFFFFFFFF AND PUSH20 0xFFFFFFFFFFFFFFFFFFFFFFFFFFFFFFFFFFFFFFFF AND DUP2 MSTORE PUSH1 0x20 ADD SWAP1 DUP2 MSTORE PUSH1 0x20 ADD PUSH0 KECCAK256 SLOAD PUSH2 0x405 SWAP2 SWAP1 PUSH2 0x7C2 JUMP JUMPDEST TIMESTAMP LT ISZERO PUSH2 0x447 JUMPI PUSH1 0x40 MLOAD PUSH32 0x8C379A000000000000000000000000000000000000000000000000000000000 DUP2 MSTORE PUSH1 0x4 ADD PUSH2 0x43E SWAP1 PUSH2 0x865 JUMP JUMPDEST PUSH1 0x40 MLOAD DUP1 SWAP2 SUB SWAP1 REVERT JUMPDEST PUSH1 0x2 SLOAD SELFBALANCE LT ISZERO PUSH2 0x48C JUMPI PUSH1 0x40 MLOAD PUSH32 0x8C379A000000000000000000000000000000000000000000000000000000000 DUP2 MSTORE PUSH1 0x4 ADD PUSH2 0x483 SWAP1 PUSH2 0x8CD JUMP JUMPDEST PUSH1 0x40 MLOAD DUP1 SWAP2 SUB SWAP1 REVERT JUMPDEST TIMESTAMP PUSH1 0x1 PUSH0 CALLER PUSH20 0xFFFFFFFFFFFFFFFFFFFFFFFFFFFFFFFFFFFFFFFF AND PUSH20 0xFFFFFFFFFFFFFFFFFFFFFFFFFFFFFFFFFFFFFFFF AND DUP2 MSTORE PUSH1 0x20 ADD SWAP1 DUP2 MSTORE PUSH1 0x20 ADD PUSH0 KECCAK256 DUP2 SWAP1 SSTORE POP CALLER PUSH20 0xFFFFFFFFFFFFFFFFFFFFFFFFFFFFFFFFFFFFFFFF AND PUSH2 0x8FC PUSH1 0x2 SLOAD SWAP1 DUP2 ISZERO MUL SWAP1 PUSH1 0x40 MLOAD PUSH0 PUSH1 0x40 MLOAD DUP1 DUP4 SUB DUP2 DUP6 DUP9 DUP9 CALL SWAP4 POP POP POP POP ISZERO DUP1 ISZERO PUSH2 0x513 JUMPI RETURNDATASIZE PUSH0 DUP1 RETURNDATACOPY RETURNDATASIZE PUSH0 REVERT JUMPDEST POP JUMP JUMPDEST PUSH0 DUP1 REVERT JUMPDEST PUSH0 PUSH20 0xFFFFFFFFFFFFFFFFFFFFFFFFFFFFFFFFFFFFFFFF DUP3 AND SWAP1 POP SWAP2 SWAP1 POP JUMP JUMPDEST PUSH0 PUSH2 0x543 DUP3 PUSH2 0x51A JUMP JUMPDEST SWAP1 POP SWAP2 SWAP1 POP JUMP JUMPDEST PUSH2 0x553 DUP2 PUSH2 0x539 JUMP JUMPDEST DUP2 EQ PUSH2 0x55D JUMPI PUSH0 DUP1 REVERT JUMPDEST POP JUMP JUMPDEST PUSH0 DUP2 CALLDATALOAD SWAP1 POP PUSH2 0x56E DUP2 PUSH2 0x54A JUMP JUMPDEST SWAP3 SWAP2 POP POP JUMP JUMPDEST PUSH0 PUSH1 0x20 DUP3 DUP5 SUB SLT ISZERO PUSH2 0x589 JUMPI PUSH2 0x588 PUSH2 0x516 JUMP JUMPDEST JUMPDEST PUSH0 PUSH2 0x596 DUP5 DUP3 DUP6 ADD PUSH2 0x560 JUMP JUMPDEST SWAP2 POP POP SWAP3 SWAP2 POP POP JUMP JUMPDEST PUSH0 DUP2 SWAP1 POP SWAP2 SWAP1 POP JUMP JUMPDEST PUSH2 0x5B1 DUP2 PUSH2 0x59F JUMP JUMPDEST DUP3 MSTORE POP POP JUMP JUMPDEST PUSH0 PUSH1 0x20 DUP3 ADD SWAP1 POP PUSH2 0x5CA PUSH0 DUP4 ADD DUP5 PUSH2 0x5A8 JUMP JUMPDEST SWAP3 SWAP2 POP POP JUMP JUMPDEST PUSH2 0x5D9 DUP2 PUSH2 0x59F JUMP JUMPDEST DUP2 EQ PUSH2 0x5E3 JUMPI PUSH0 DUP1 REVERT JUMPDEST POP JUMP JUMPDEST PUSH0 DUP2 CALLDATALOAD SWAP1 POP PUSH2 0x5F4 DUP2 PUSH2 0x5D0 JUMP JUMPDEST SWAP3 SWAP2 POP POP JUMP JUMPDEST PUSH0 PUSH1 0x20 DUP3 DUP5 SUB SLT ISZERO PUSH2 0x60F JUMPI PUSH2 0x60E PUSH2 0x516 JUMP JUMPDEST JUMPDEST PUSH0 PUSH2 0x61C DUP5 DUP3 DUP6 ADD PUSH2 0x5E6 JUMP JUMPDEST SWAP2 POP POP SWAP3 SWAP2 POP POP JUMP JUMPDEST PUSH2 0x62E DUP2 PUSH2 0x539 JUMP JUMPDEST DUP3 MSTORE POP POP JUMP JUMPDEST PUSH0 PUSH1 0x20 DUP3 ADD SWAP1 POP PUSH2 0x647 PUSH0 DUP4 ADD DUP5 PUSH2 0x625 JUMP JUMPDEST SWAP3 SWAP2 POP POP JUMP JUMPDEST PUSH0 DUP3 DUP3 MSTORE PUSH1 0x20 DUP3 ADD SWAP1 POP SWAP3 SWAP2 POP POP JUMP JUMPDEST PUSH32 0x4F6E6C7920746865206F776E65722063616E2077697468647261770000000000 PUSH0 DUP3 ADD MSTORE POP JUMP JUMPDEST PUSH0 PUSH2 0x691 PUSH1 0x1B DUP4 PUSH2 0x64D JUMP JUMPDEST SWAP2 POP PUSH2 0x69C DUP3 PUSH2 0x65D JUMP JUMPDEST PUSH1 0x20 DUP3 ADD SWAP1 POP SWAP2 SWAP1 POP JUMP JUMPDEST PUSH0 PUSH1 0x20 DUP3 ADD SWAP1 POP DUP2 DUP2 SUB PUSH0 DUP4 ADD MSTORE PUSH2 0x6BE DUP2 PUSH2 0x685 JUMP JUMPDEST SWAP1 POP SWAP2 SWAP1 POP JUMP JUMPDEST PUSH32 0x4E6F7420656E6F7567682066756E647300000000000000000000000000000000 PUSH0 DUP3 ADD MSTORE POP JUMP JUMPDEST PUSH0 PUSH2 0x6F9 PUSH1 0x10 DUP4 PUSH2 0x64D JUMP JUMPDEST SWAP2 POP PUSH2 0x704 DUP3 PUSH2 0x6C5 JUMP JUMPDEST PUSH1 0x20 DUP3 ADD SWAP1 POP SWAP2 SWAP1 POP JUMP JUMPDEST PUSH0 PUSH1 0x20 DUP3 ADD SWAP1 POP DUP2 DUP2 SUB PUSH0 DUP4 ADD MSTORE PUSH2 0x726 DUP2 PUSH2 0x6ED JUMP JUMPDEST SWAP1 POP SWAP2 SWAP1 POP JUMP JUMPDEST PUSH32 0x4F6E6C7920746865206F776E65722063616E206465706F7369742066756E6473 PUSH0 DUP3 ADD MSTORE POP JUMP JUMPDEST PUSH0 PUSH2 0x761 PUSH1 0x20 DUP4 PUSH2 0x64D JUMP JUMPDEST SWAP2 POP PUSH2 0x76C DUP3 PUSH2 0x72D JUMP JUMPDEST PUSH1 0x20 DUP3 ADD SWAP1 POP SWAP2 SWAP1 POP JUMP JUMPDEST PUSH0 PUSH1 0x20 DUP3 ADD SWAP1 POP DUP2 DUP2 SUB PUSH0 DUP4 ADD MSTORE PUSH2 0x78E DUP2 PUSH2 0x755 JUMP JUMPDEST SWAP1 POP SWAP2 SWAP1 POP JUMP JUMPDEST PUSH32 0x4E487B7100000000000000000000000000000000000000000000000000000000 PUSH0 MSTORE PUSH1 0x11 PUSH1 0x4 MSTORE PUSH1 0x24 PUSH0 REVERT JUMPDEST PUSH0 PUSH2 0x7CC DUP3 PUSH2 0x59F JUMP JUMPDEST SWAP2 POP PUSH2 0x7D7 DUP4 PUSH2 0x59F JUMP JUMPDEST SWAP3 POP DUP3 DUP3 ADD SWAP1 POP DUP1 DUP3 GT ISZERO PUSH2 0x7EF JUMPI PUSH2 0x7EE PUSH2 0x795 JUMP JUMPDEST JUMPDEST SWAP3 SWAP2 POP POP JUMP JUMPDEST PUSH32 0x596F752063616E206F6E6C7920636C61696D206F6E6365206576657279203234 PUSH0 DUP3 ADD MSTORE PUSH32 0x20686F7572730000000000000000000000000000000000000000000000000000 PUSH1 0x20 DUP3 ADD MSTORE POP JUMP JUMPDEST PUSH0 PUSH2 0x84F PUSH1 0x26 DUP4 PUSH2 0x64D JUMP JUMPDEST SWAP2 POP PUSH2 0x85A DUP3 PUSH2 0x7F5 JUMP JUMPDEST PUSH1 0x40 DUP3 ADD SWAP1 POP SWAP2 SWAP1 POP JUMP JUMPDEST PUSH0 PUSH1 0x20 DUP3 ADD SWAP1 POP DUP2 DUP2 SUB PUSH0 DUP4 ADD MSTORE PUSH2 0x87C DUP2 PUSH2 0x843 JUMP JUMPDEST SWAP1 POP SWAP2 SWAP1 POP JUMP JUMPDEST PUSH32 0x46617563657420646F65736E2774206861766520656E6F7567682066756E6473 PUSH0 DUP3 ADD MSTORE POP JUMP JUMPDEST PUSH0 PUSH2 0x8B7 PUSH1 0x20 DUP4 PUSH2 0x64D JUMP JUMPDEST SWAP2 POP PUSH2 0x8C2 DUP3 PUSH2 0x883 JUMP JUMPDEST PUSH1 0x20 DUP3 ADD SWAP1 POP SWAP2 SWAP1 POP JUMP JUMPDEST PUSH0 PUSH1 0x20 DUP3 ADD SWAP1 POP DUP2 DUP2 SUB PUSH0 DUP4 ADD MSTORE PUSH2 0x8E4 DUP2 PUSH2 0x8AB JUMP JUMPDEST SWAP1 POP SWAP2 SWAP1 POP JUMP INVALID LOG2 PUSH5 0x6970667358 0x22 SLT KECCAK256 DUP2 EXTCODECOPY 0xD4 MSTORE8 SWAP10 0xAB DIV CALLCODE 0xE8 0x2F LT DUP3 COINBASE SWAP1 PUSH6 0x9F12137FDB99 SWAP16 0x21 EXTCODESIZE SMOD MLOAD MLOAD 0xD0 PUSH24 0xCEEE8664736F6C634300081A003300000000000000000000 "
				},
				"gasEstimates": {
					"creation": {
						"codeDepositCost": "467400",
						"executionCost": "68980",
						"totalCost": "536380"
					},
					"external": {
						"checkBalance()": "356",
						"claimAmount()": "2492",
						"cooldown()": "2470",
						"deposit()": "2613",
						"lastClaimed(address)": "2803",
						"owner()": "2505",
						"requestEth()": "infinite",
						"withdraw(uint256)": "infinite"
					}
				},
				"methodIdentifiers": {
					"checkBalance()": "c71daccb",
					"claimAmount()": "830953ab",
					"cooldown()": "787a08a6",
					"deposit()": "d0e30db0",
					"lastClaimed(address)": "013eba92",
					"owner()": "8da5cb5b",
					"requestEth()": "f192d0a1",
					"withdraw(uint256)": "2e1a7d4d"
				}
			},
			"storageLayout": {
				"storage": [
					{
						"astId": 3,
						"contract": "fauset.sol:Faucet",
						"label": "owner",
						"offset": 0,
						"slot": "0",
						"type": "t_address"
					},
					{
						"astId": 7,
						"contract": "fauset.sol:Faucet",
						"label": "lastClaimed",
						"offset": 0,
						"slot": "1",
						"type": "t_mapping(t_address,t_uint256)"
					},
					{
						"astId": 10,
						"contract": "fauset.sol:Faucet",
						"label": "claimAmount",
						"offset": 0,
						"slot": "2",
						"type": "t_uint256"
					},
					{
						"astId": 13,
						"contract": "fauset.sol:Faucet",
						"label": "cooldown",
						"offset": 0,
						"slot": "3",
						"type": "t_uint256"
					}
				],
				"types": {
					"t_address": {
						"encoding": "inplace",
						"label": "address",
						"numberOfBytes": "20"
					},
					"t_mapping(t_address,t_uint256)": {
						"encoding": "mapping",
						"key": "t_address",
						"label": "mapping(address => uint256)",
						"numberOfBytes": "32",
						"value": "t_uint256"
					},
					"t_uint256": {
						"encoding": "inplace",
						"label": "uint256",
						"numberOfBytes": "32"
					}
				}
			},
			"userdoc": {
				"kind": "user",
				"methods": {},
				"version": 1
			}
		}
	}
}